:100000000C94561A0C94771A0C9452350C94F835BB
:100010000C94771A0C94771A0C94771A0C94771A1C
:100020000C9460370C94771A0C94AA590C940159CB
:100030000C94771A0C94771A0C9408400C9484371B
:100040000C94771A0C94771A0C94771A0C94771AEC
:100050000C9445360C94771A0C94771A0C94771AF2
:100060000C94771A0C94771A0C94771A0C94771ACC
:100070000C94771A0C94771A0C94771A0C94771ABC
:100080000C94771A0C94771A0C94771A0C94771AAC
:100090000C94771A0C94771A0C94771A0C94771A9C
:1000A0000C94771A0C94771A0C94771A0C94771A8C
:1000B0000C94771A0C94771A0C94771A0C94CE3D02
:1000C0000C94771A0C94771A0C94771A0C94771A6C
:1000D0000C94771A0C94771A0C94771A0C94771A5C
:1000E0000C94771A0C94771A0C943F2F0C94E830E8
:1000F0000C94771A0C94771A0C94771A0C94771A3C
:100100000C94771A0C94771A0C94771A0C94771A2B
:100110000C94771A0C94771A0C94771A0C94771A1B
:100120000C94771A0C94771A0C94771A0C94771A0B
:100130000C94771A0C94771A0C940E380C94771A46
:100140000C94771A0C94771A0C94771A0C94532603
:100150000C94771A0C94771A0C94771A0C94771ADB
:100160000C94771A0C94771A0C94771A0C94771ACB
:100170000C94771A0C94771A0C94771A0C94771ABB
:100180000C94771A0C94771A0C94771A0C94771AAB
:100190000C94771A0C94771A0C94771A0C94771A9B
:1001A0000C942E380C94771A0C94771A0C94771AB6
:1001B0000C9403590C94771A0C944D590C94771A9B
:1001C0000C94771A0C94771A0C94771A0C94771A6B
:1001D0000C94771A0C94771A0C94771A0C94771A5B
:1001E0000C94771A0C94771A0C94771A0C94771A4B
:1001F0000C94771A0C9483600C94C860934825493A
:10020000454964497349254945498149EC49404A72
:100210007B4AB64AC54AD04AED4A0D4B294B434B5F
:100220005C4B704B814B914BA14BB54BC24BCF4BB1
:10023000094C1A4C274C344C434C504C624C7D4C6E
:100240008A4CA64CEF4C074D1C4D304D4A4D644D29
:100250007E4D8F4DA44DAF4DC14DD34DF44D154E38
:10026000224E3D4E5A4E7C4E8D4EC84EE74E064FA6
:100270001E4F364F534F684F7A4F8E4FA24FB64F97
:10028000CF4FE84FFF4F16502C5041505650CA5098
:10029000D050D650DC50EA50FA500851165128512F
:1002A00037514B515E516A517651B052B052825122
:1002B0009351B052B0529F51B052B151BF51B05250
:1002C000CD51DB51E951F9510752155228523B5299
:1002D0004E52B0525A526C527A5280529252B0528E
:1002E000A45214539954995499541D5328535A5352
:1002F0009053DD531E5433543F5446544D5452547E
:1003000056545F5471548054F860EA61EE61EA61BA
:10031000EE61FF601761EE61316138610C94C54A8E
:100320000C94EF4C0C9456540C94B54B0C941E4FFB
:100330000C94C24B0C9425490C946A510C94C14DF9
:100340000C9473490C947C4E0C94A24F0C94AF4DBA
:100350000C944D540C9445490C94434C0C942C50E3
:100360000C941A4C0C940D4B0C94B0520C94064FF8
:100370000C94434B0C94704B0C944A4D0C940851C4
:100380000C94FF4F0C9464490C947A520C94DB51FA
:100390000C94E84F0C9493480C947D4C0C94805230
:1003A0000C94F8600C9437510C947E4D0C945A4E7A
:1003B0000C94D0500C948F4D0C948D4E0C94304D69
:1003C0000C94344C0C94CF4F0C948E4F0C94B15130
:1003D0000C94224E0C9415520C9456500C941C4DB7
:1003E0000C94D34D0C9471540C9428530C947A4F64
:1003F0000C94624C0C945E510C94364F0C944B51FF
:100400000C943F540C94D6500C9492520C94504C33
:100410000C9476510C94DC500C94C84E0C9480547F
:100420000C94294B0C9452540C94E74E0C941D538D
:100430000C9433540C943B520C94FA500C94CA50C4
:100440000C94D04A0C94B64F0C947B4A0C944E52A8
:100450000C9441500C9482510C943D4E0C9490534A
:100460000C9428520C94534F0C94A64C0C94995411
:100470000C94684F0C94914B0C94274C0C9414538F
:100480000C9446540C9481490C945F540C94DD53A5
:100490000C9417610C94A44D0C945C4B0C941E545A
:1004A0000C94EE610C94F9510C945A530C94E9514C
:1004B0000C94EA500C94ED4A0C94814B0C94BF516F
:1004C0000C9416500C94FF600C94404A0C948A4C87
:1004D0000C9431610C94074D0C94B64A0C94EC4981
:1004E0000C946C520C9493510C94F44D0C94EA615E
:1004F0000C94644D0C94CF4B0C9416510C94094CF5
:100500000C9428510C94A4520C94A14B0C945A5264
:100510000C94CD510C949F510C9407520C94154E91
:100520000C943861F0F1EF0001100001100F110080
:100530000E121F210007FF0B06080306060305071E
:100540000405030600020207FF080C178B959FA9FC
:10055000B2BBC3CBD3DAE1E8EEF4FA00050B10141A
:10056000191D2125292D3134373A3D404345484A4C
:100570004C4F51535557585A5C5D5F6061636465D9
:10058000666768696A6B6C6D6E6F6F70717172739C
:1005900073747475757676767777787878797979F3
:1005A0007A7A7A7A7B7B7B7B7B7C7C7C7C7C7C7D97
:1005B0007D7D7D7D7D7D7E7E7E7E7E7E7E7E7E7E61
:1005C0007E7E7F7F7F7F7F7F7F7F7F7F0000000039
:1005D0000000000000000000010101010102020210
:1005E0000303030404040505060607070809090AAE
:1005F0000B0C0C0D0E0F10111213141516171819E1
:100600001A1C1D1E202122242527282A2B2D2F309D
:1006100032343537393B3C3E4042434547494B4DE8
:100620004E5052545657595B5C5E60616365666814
:10063000696B6C6E6F7071737475767778797A7B8D
:100640007B7C7D7D7E7E7F7F7F7F7F7F00000000C3
:100650000000000001010102020303040405060674
:100660000708090A0A0B0C0D0E0F101112141516AB
:1006700017181A1B1C1D1F202223242627292A2C69
:100680002D2F3032333536383A3B3D3E40414345DD
:100690004648494B4C4E4F5153545657585A5B5D40
:1006A0005E5F616264656667696A6B6C6D6E6F70D0
:1006B000717273747576777878797A7A7B7B7C7CC3
:1006C0007D7D7E7E7E7F7F7F7F7F7F7F0909090919
:1006D0000A0A0A0A0A0B0B0B0C0C0D0D0E0E0F105A
:1006E00010111213131415161718191A1B1C1D1E9E
:1006F0001F20212324252627292A2B2D2E2F313276
:1007000034353638393B3C3E3F4042434546484904
:100710004B4C4D4F505253555657595A5B5D5E5F87
:1007200061626364666768696A6B6C6E6F70717230
:10073000727374757677777879797A7B7B7C7C7D38
:100740007D7E7E7E7E7F7F7F7F7F7F7F06067F7FB1
:100750007F7F7F7F7FFFFF7F0AFCFFFFFFFFFF4060
:1007600002FFFF7FFF05FFFFFFFFBE0046323A207A
:100770000046313A2000531C1D1E00561C1D1E0051
:10078000205600201A1B560053544F50004B485A15
:10079000001F563D002031161F543D00010000008F
:1007A0000A00000064000000E803000010270000B9
:1007B000A086010040420F008096980046572032E4
:1007C0002E343500000000FE010001FF01FE01FD96
:1007D00002FE000201000101010201030202FF000A
:1007E0000000FE010001FF01FE01FD02FEFF00000E
:1007F000000201000101010201030202FFF8FEFFF5
:1008000007030307FFFEF80F3F7F706060707F3FB4
:100810000F0010181CFEFFFF000000000000007F0A
:100820007F7F0000000C0E0F070383C7FFFE7C7064
:10083000787C7E6F67636160600C0E0FC7C3E7FF53
:10084000FEBC00183878706060717F3F1F0080C068
:10085000F0781EFFFFFF000E0F0F0D0C0C7F7F7F47
:100860000CF0FFFF7F6363E3E3C3830C3C7C7060A9
:1008700060707F3F1FF8FEFFC7C3C3C7CF8E0C0F4A
:100880003F7F716060717F3F1F03030383E3FB7F42
:100890001F070300007C7F7F03000000001C3EFF59
:1008A000E7C3C3E7FF3E1C1E3F7F736161737F3F59
:1008B0001E7CFEFFC78383C7FFFEF818387971617D
:1008C00061717F3F0F103E1010101E300C02382057
:1008D00038283C08050F04000038180838300C028E
:1008E000283E00182018382638000000002E000688
:1008F00000063E143E143F0A120824142A3400064F
:10090000001C2200221C001C1C1C081C084020008B
:100910000808080020001008041C221C243E203275
:100920002A24222A140E083E2E2A123E2A3A023A7D
:10093000063E2A3E2E2A3E001400201400081422EF
:10094000141414221408022A041C262E3C0A3C3ECD
:100950002A141C22223E221C3E2A223E0A021C226B
:100960001A3E083E223E2210201E3E08363E20201F
:100970003E043E3E023E3E223E3E0A041C223C3ED7
:100980000A34242A12023E023E203E1E201E3E1041
:100990003E3608360E300E322A26003E220408105B
:1009A000223E00040204404040020400342C383E41
:1009B000241818242418243E18342C083C0A5854AF
:1009C0003C3E0438003A00403A003E1824001E2005
:1009D0003C0C3C3C04381824187C241818247C381F
:1009E0000404283C14043E243C203C1C201C3C30C5
:1009F0003C2418240C503C343C2C08362200360091
:100A00002236080406023E3E3E00002C0BF40ABAD1
:100A10000A880A5A0A230A3D0B0E0BD80A9D0A6F50
:100A20000A3D0A0D10FFFF04F7FFF9F7FC17FE1748
:100A3000D017FE17FC17F9F7F702FFFF050D10009E
:100A400000020800161C09F404142E1450142E146D
:100A5000041409F4161C080000030D10FFFF07F72B
:100A6000F3E7FA07F207FA07F3E7FFF7FFFF060DD0
:100A7000100000050C1E1413E40A0412040A0413E7
:100A8000E41E14000C0000040D10FFFF07F7F8E748
:100A9000F447CE47F447F8E7FFF7FFFF060D1000D5
:100AA00000030C001C071408E434444E443444088A
:100AB000E40714001C000C0000020D10FFFF02FEF2
:100AC0007FFC3FFC1FFC17EE17D1D7EE17FC17FC7D
:100AD0001FFC3FFE7FFFFF020D1003C006600430C5
:100AE000041C3C146E1451D46E143C14041C0430C9
:100AF000066003C00D10FFFF04FE3FF83FE47FF0E7
:100B00007FE0E7F007F007F807FE07FFFF040D108E
:100B100000000201C0062018202440105C20E410D0
:100B20000410040804060401FC0000020D10FFFF7D
:100B300009F7F967F807F967FFF7FFFF080D1000DD
:100B400000070C06940964080409640694000C006C
:100B5000000600008F18AF15BD12B30FF40C600B28
:100B600060400000B901F0000006031E000006010D
:100B700083800001F8000003C0C0020003FE0000F3
:100B8000036060020007FF000003303002000FFF27
:100B90000000031810001FFF8000400818003FFFEE
:100BA0008000E0080802007FFF8000B00808020013
:100BB000FFFF0280009808080201FFFF0280008CFE
:100BC000180803FFFF02800087300807FFFF0200BC
:100BD0000002C1E0080FFFFE0000024000081FFFF6
:100BE000FC00000240000C1FFFF80000026000063D
:100BF0001FFFF000000230003B1FFFE00000021862
:100C0000006D9FFFC00000020E0046DFFF80000065
:100C100002038E637FFF000004FB31BFFE0000046F
:100C20000198DFFC000005CC6FF800000566360077
:100C30000006331B000006198D800000050CC6C09D
:100C40000000051E63600000053331B0000005633D
:100C500098D8000005C6CC6C000004018C663600F4
:100C600000040318331B0000040630198D800000B7
:100C7000030C600CC6C000000318C00663600000CF
:100C80000331800331B00000036300019898020033
:100C90000003C6000002CD8C000002078C00000299
:100CA00067060000020C1800000230030000021862
:100CB000300000021801800030200000020C00C04B
:100CC00000602000000206060240003060000002C2
:100CD000030E400018C0000002018E40000D80008D
:100CE0000003CCC000070000046180000200000483
:100CF0003F0000B96040000007FF00000601FF0050
:100D0000000603FF00000607FF0000060FFF0000BB
:100D1000061FFF0000063FFF0000067FFF000006E1
:100D2000FFFF02000006FFFF02000006FFC30000F5
:100D300006FFBB000006FF6B000006FEEB0000068E
:100D4000F9EB0000040F80F7EB0000041FD00FEB5D
:100D50000000043FEFFBEB0000043FEFFBEB000063
:100D6000043FEFFBEB0000043FEFFBEB0000043F10
:100D7000EFFBEB000003103FEFFBEB000600281F2A
:100D8000D0FFEB000B00680F81FFEB0004C2A8004E
:100D90000E01EB000A3D2FFFF100EB000A052800D1
:100DA00001006B001405280001007B006405280089
:100DB00001005300A205280001005F00A2052800E1
:100DC00001005F006405280001007300140529FE7E
:100DD0000100C3000A052902010323000A1D2F0197
:100DE00001020C230004E2A9F1FFF023000B0068CC
:100DF0001100082300060029F10008230000031158
:100E00000100082300000301010200082300000381
:100E10000101020008230000030101020008230071
:100E2000000301F100082300000411000823000062
:100E30000301F1FFF023000003070100FC23000081
:100E400003190200FB2300000323FF80E4C300001A
:100E500002014602FF8423000002028E0280041F6A
:100E6000000002028E02800417000002028E02803F
:100E700004170007814702800417000FC4A3E28013
:100E80000417001F7B5806FF84171E3F7B5C0FFF73
:100E9000E4171E5F7B5FFFFF02F8176CDF7B5FFFCD
:100EA000FF02DE177FDF7B5FFFFF02DF177FDF7B45
:100EB0005FFFFF02DF976CDF7B5FFFFF02DFFF1E3C
:100EC0005F7B5FFFFF02DF7F1E3F7B5FF007DF6915
:100ED000001F7B5FC000FFC9000FC4D083FC1F89C7
:100EE000000780511C00E6090000032120001109C1
:100EF00000000302207C010900000302400389096D
:100F00000000030287004109000003020880210954
:100F100000000303C07C110900000306202311090F
:100F2000000003050020D10900000304C0102109BE
:100F3000000003044010010900000302A40C010991
:100F400000000301540B86090000040818FF890003
:100F500000040614FFC90000040104FFE9000005B5
:100F600088FFFF0200000570FFFF02000006FFFF80
:100F700002000006FFFF02000006FFFF020000065D
:100F8000FFFF02000006FFFF02000006FFFF020055
:100F90000006FFFF02000006FFFF02000006FFFF41
:100FA00002000006FFFF02000006FFFF020000062D
:100FB000FFFF0260401FFFFF04FE00081FFFFF0449
:100FC000FE0008180000040601F8180000040601DD
:100FD0000019FFFF02E000060100190000022000D6
:100FE0000601001900000221C38601F81900000261
:100FF00022244600081900000222A547E008191F14
:101000003E222447E008193FBF21C38661F819003A
:1010100000022000066100193FBF20000661001990
:101020005F3EA000066100196001A00007E1F81909
:101030006001A00007E008196001A000060008197F
:101040006001A000060008195F3EA1818601F81921
:101050003FBF224246010019000002224246010021
:10106000193FBF2242460100195F3EA2424601F8E5
:10107000196001A181860008196001A0000600081E
:10108000196001A000060008196001A7E7E601F851
:10109000195F3EA484860100193FBF2484860100A5
:1010A000190000022403060100193FBF20000601B9
:1010B000F8195F3EA7E7C60008196001A480260062
:1010C00008196001A480260008196001A367C60101
:1010D000F8196001A000060100195F3EA7E7E601CC
:1010E00000193FBF24A02601001900000224A026F9
:1010F00001F8193FBF2420260008195F3EA0000612
:101100000008196001A3C3260008196001A424A6E1
:1011100001F8196001A4A402A60100196001A44409
:10112000460100195F3EA3A0060100193FBF20073A
:10113000E601F8190000022004A60008190001A029
:1011400004A60008190001A00426000819000002E6
:1011500020000601F8193FBF2000060100195F3E7C
:10116000A000060100196001A0000601001960013D
:10117000A0000601F8196001A0000600081960012E
:10118000A000060008195F3EA000060008193FBF36
:1011900020000601F8190000022000060100193F96
:1011A000BF2000060100195F3EA000060100196083
:1011B00001A0000601F8196001A0000600081960EE
:1011C00001A000060008196001A000060008195FD0
:1011D0003EA0000601F8193FBF20000601001900DB
:1011E00000022000060100193FBF2000060100197F
:1011F0005F3EA0000601F8196001A0000600081972
:101200006001A000060008196001A000060008198E
:101210006001A0000601F8195F3EA0000601001958
:101220003FBF200006010019000002200006010057
:1012300019FFFF02E0000601F8180000040600088C
:101240001800000407E008187F3F800007E0081836
:1012500008040000020661F8181404000002066188
:101260000018220400000206610018413F800006B9
:1012700061001800000407E1F8180021800007E071
:1012800008180022800006000818002480000600CC
:101290000818002880000601F818003180000601B7
:1012A0000018000004060100180000040601001FD9
:1012B000FFFF04FE01F81FFFFF04FE00086040FF6F
:1012C000FF06E0008000000520008000000207C04B
:1012D0007C2FC080000002020020286080000002F5
:1012E00007C07C2F208000000521A080007C0440E6
:1012F0007C20A080004407C04423B8800044044000
:101300007C220880000005231887C07C07407421D8
:10131000B084400405405420E084400405C05C20B3
:101320004080000005200087407C07C044200085E5
:10133000401004407C21C085C06C07C04420408020
:1013400000000521F0800000052000900001101130
:1013500001210090000110110121009FF0011011E6
:101360000121F080100110110120008010010820DF
:1013700082200080100107C07C200080100108201E
:101380008221F080100110110121508010011451B0
:101390004521708011FF17D17D2000801100105170
:1013A00005211080110010110121F080110008208A
:1013B0008220108011FF07C07C20008010010820CF
:1013C000822000801001101101200080100115D131
:1013D0005D21F08011FF15515521508011001751EA
:1013E000752170801100101101200080110008206B
:1013F0008221708011FF07C07C21508010010820DD
:101400008221D080100110110120008010011451A0
:101410004520008011FF155155200080110017D183
:101420007D21008011001011012100801100082091
:101430008221F08011FF07C07C200080100108206D
:1014400082217080100110110121508010011711AC
:101450007121D08011FF111103200080110017D1DC
:101460007D20008011001011012000801100082053
:101470008221F08011FF07C07C21508010010820DC
:10148000822170801001101101200080100117517D
:101490007521D08011FF155155215080110015D1B3
:1014A0005D21F08011001011012000801100082042
:1014B0008220008011FF07C07C20008010010820DE
:1014C0008221F0801001101101215080100117D1EC
:1014D0007D21708011FF155155200080110015D11C
:1014E0005D21D080110010110121508011000820D1
:1014F0008221708011FF07C07C200080100108202D
:1015000082200080100110110120008010011411B0
:101510004121F08011FF141141215080110017D199
:101520007D21708011001011012000801100082021
:101530008221F08011FF07C07C211080100108205B
:10154000822110801001101101200080100117D19C
:101550007D20008011FF155155200080110017D10A
:101560007D20108011001011012000801100082042
:101570008220008011FF07C07C200080100108201D
:101580008220108010011011012000801001101124
:101590000120009FF00110110120009000011011A6
:1015A000012010800000052000FFFF06E000006021
:1015B000400FFFFF06C00FFFFF06C00C000006C073
:1015C0000C000006C00CFFFF04FE7CC00CFFF7F708
:1015D00002FBEE44C00CFFFBEFC30E54C00CFFFB3C
:1015E000DFDF027E54C00CFFFBDFDF027E54FC0C09
:1015F000FFF7EFDF0E54FC0CFFEFF7DFEE44CC0CEF
:10160000FF9FFBDFEE7CCC0CFE7FFBC30E00CC0CFF
:10161000FDFFF7FB7E00CC0CFBFFEFFB7E00FC0C1C
:10162000F7FFDFFB0E00FC0CF7FFDFFBEE00C00C4A
:10163000F7FFEFFBEE00C00CFBFFF7FB0E00C00C4A
:10164000FDFFFBFB027E00C00CFE7FFBFB027E0069
:10165000C00CFF9FF7FB0E00C00CFFEFEF02FBEE8C
:1016600000C00CFFF7DFFBEE00C00CFFFBDFC30E7A
:1016700000C00CFFFBEFDF7E00C00CFFFBF7DF7E3E
:1016800000C00CFFF7FBDF0E00C00CFFEFFBDFEE2E
:1016900000C00CFF9FF7DFEE00C00CFE7FEFDF0EF7
:1016A00000C00CFDFFDFDF027E00C00CFBFFDFDFB0
:1016B000027E00C00CF7FFEFDF0E00C00CF7FFF753
:1016C000DFEE00C00CF7FFFBDFEE7CC00CFBFFFB86
:1016D000C30E44C00CFDFFF7FB7E54C00CFE7FEF31
:1016E000FB7E44C00CFF9FDFFB0E54C00CFFEFDFFE
:1016F000FBEE44C00CFFF7EFFBEE54C00CFFFBF712
:10170000C30E44C00CFFFBFB02DF7E54C00CFFFB8A
:10171000FB02DF7E44C00CFFF7F702DF0E54C00C63
:10172000FFEFEF02DFEE44C00CFF9FDFDF02EE545D
:10173000C00CFE7FDFC30E44C00CFDFFEFFB7E54E8
:10174000C00CFBFFF7FB7E44C00CF7FFFBFB020E57
:1017500054C00CF7FFFBFB02EE44C00CFFFF04FE7D
:101760007CC00C000006C00C000006C00C7C7C0590
:1017700000C00C44440500C00C44440500C00C44A7
:10178000440538C00C444406C00C7C7C0554C00C95
:1017900000000544C00C00000538C00C000006C065
:1017A0000C000006C00C0000047000C00C380000E3
:1017B00002E08838C00C440001110444C00C44000D
:1017C00001110454C00C440001110444C00C380041
:1017D0000002E08838C00C0000047000C00C001C3F
:1017E000000004C00C0063000004C00C00808002F4
:1017F00000000238C00C010040007044C00C010021
:1018000040E08854C00C020021110444C00C0200C6
:1018100021110438C00C020021110400FC0C01004D
:1018200040E08800FC0C010040007000CC0C0080FF
:10183000800200000238CC0C006300000344CC0C92
:10184000001C00000354CC0C0000047044FC0C3855
:10185000000002E08838FC0C440001110400C00CB8
:10186000440001110400C00C44000111040402C032
:101870000C38000002E0886CC00C0000047004C04A
:101880000C000006C00FFFFF06C00FFFFF06C06080
:101890004000000207FFFF028000000407FFFF0274
:1018A0008000000407FCFF8000000407FCFF8000AC
:1018B000000407FFFF028000000407FFFF02800012
:1018C000000407FFFF028000000407FFFF02800002
:1018D000000407FFFF02800000040FFFFF02C000AA
:1018E00000040FFFFF02C00000040FFFFF02C00052
:1018F00000040FFFFF02C00000040FFFFF02C00042
:1019000000040FFFFF02C00000040FFFFF02C00031
:1019100000040FFFFF02C00000040FFFFF02C00021
:1019200000040FFFFF02C0000004FFFF03FE0000E1
:101930000301FFFF0400000301F7FFFF02BF0000E7
:101940000301F3FFFF023F00000303F0FFFC3F80B1
:1019500000000203F3FFFF023F8000000203FFFFCD
:10196000048000000203FFFF048000000207FFC0A4
:101970000FFFC000000207FE0301FFC000000207C6
:10198000F803007FC00000020FE600019FE00000A6
:10199000020FC6000187E00000021F800000020362
:1019A000F00000021F00000301F00000023E0000F2
:1019B00004F80000027C00000220007C0000027895
:1019C00000000260003C000002FB000002E001BEDB
:1019D000000002F3000002E0019E000002F000009F
:1019E00002E0001E0001E0000002C0000F0001E064
:1019F000000002C0000F0001E0000180000F0001A4
:101A0000C000018000070003C000018000078003C0
:101A1000C00001000002078003C0000300000207AD
:101A20008003D80003000002378003D800FFC00005
:101A3000378003C0FF01F800078003C00000027E6A
:101A400000078003C00000021F00078001E00000C3
:101A50000207C00F0001E000000203E00F0001E0F8
:101A6000000003F00F0001F00000041F000002F36B
:101A7000000003019E000002FB00000301BE000005
:101A800002F80000043E0000027C0000047C00001C
:101A9000023E000004F80000023F00000301F800CD
:101AA00000021F8000000203F00000021FC60001B8
:101AB00087F00000021FE600019FF00000020FF80F
:101AC00003007FE00000020FFE0301FFE0000002C0
:101AD0000FFF8007FFE000000207FFFF04C00000C7
:101AE0000207FFFF04C000000207EFFFFF02DFC094
:101AF00000000207E3FFFF021FC000000203E07FB7
:101B0000F81F8000000203E7FFFF029F8000000231
:101B100003EFFFFF02DF8000000201FFFF0400006F
:101B20000301FFFF040000041FFFFF02E0000004A8
:101B30001FFFFF02E00000041FFFFF02E00000049F
:101B40001FFFFF02E00000041FFFFF02E00000048F
:101B50001FFFFF02E00000041FFFFF02E00000047F
:101B60001FFFFF02E00000040FFFFF02C00000049F
:101B70000FFFFF02C00000040FFFFF02C0000004BF
:101B80000FFFFF02C00000040FFFFF02C0000004AF
:101B90000FFFFF02C00000040FFFFF02C00000049F
:101BA0000FFFFF02C00000040FFFFF02C00000048F
:101BB0000FFFFF02C00000040FFFFF02C000000281
:101BC0001008FF81BDBD0B81FF180808020E7EFFC3
:101BD000FF027E0E0207087FFFCCCC03FF7F0708C1
:101BE000FFFF02CCCC03FC788F1CF61B3D1FA71E09
:101BF000201E831D1D1D2F187FF000BFF001DFE8A0
:101C000003E01C07E01C07E01C07E01C07E01C07C2
:101C1000E01C07E01C07E01C07C00BFB8007FD0071
:101C200007FE0000067FF7FE3FF7FD1FE3FB000005
:101C30000207000002070000020700000207000080
:101C400002070000020700000207000002071FE36E
:101C5000FB3FF7FD7FF7FE0000067FF7FEBFF7FCB6
:101C6000DFE3F8E0000002E0000002E0000002E034
:101C7000000002E0000002E0000002E0000002E0DC
:101C8000000002DFE3F8BFF7FC7FF7FE0000032F40
:101C9000187FF000BFF001DFE803E01C07E01C073D
:101CA000E01C07E01C07E01C07E01C07E01C07E045
:101CB0001C07C00BFB8007FD0007FE0000067FF736
:101CC000FEBFF7FCDFEBF8E01C00E01C00E01C00AE
:101CD000E01C00E01C00E01C00E01C00E01C00DF39
:101CE000EBF8BFF7FC7FF7FE00000680000002C0A3
:101CF000000002E0000002E0000002E0000002E755
:101D0000E702F8EFE7FCEFE7FCE0000002E000008C
:101D100002E0000002C0000002800000082F187FCF
:101D2000F7FEBFF7FCDFEBF8E01C00E01C00E01C56
:101D300000E01C00E01C00E01C00E01C00E01C00B7
:101D4000E00800C00000028000000B7FF7FEBFF734
:101D5000FCDFEBF8E01C00E01C00E01C00E01C00D5
:101D6000E01C80E01DFCE01DFCE01CFCDFE800BF87
:101D7000F0007FF00000077FF7FE3FF7FC1FE3F85D
:101D80000000212F1800000380000002C0000002A4
:101D9000E0000002E0000002E0000002E7E702F8D5
:101DA000EFE7FCEFE7FCE0000002E0000002E000EB
:101DB0000002C00000028000000B7FF7FE3FF7FC2E
:101DC0001FEBF8001C0000021C0000021C000002B7
:101DD0001C0000021C0000021C0000021C0000028B
:101DE0001C001FEBF83FF7FC7FF7FE0000067FF7B3
:101DF000FE3FF7FD1FE3FB000002070000020700A3
:101E000000020700000207000002070000020700AE
:101E1000000207000002071FE3FB3FF7FD7FF7FE0C
:101E20002F18FFFF067FEFFF3FC00F0000020F00DB
:101E30000FFF7FEFFF7FE7F73FF7F7021FE0070095
:101E40000002070007FF1FEFFF3FFFFF027FFFFFBA
:101E5000020000067FF7FEBFF7FDDFEBFBE01C078B
:101E6000E01C07E01C07E01C07E01C07E01C07E083
:101E70001C07E01C07C0080380000100000A07FEE1
:101E80000007FD000BFB001C07001C07001C0700DF
:101E90001C07001C07001C07001C07001C071FEB89
:101EA000FB3FF7FD7FF7FE2F1800000380000002C4
:101EB000C0000002E0000002E0000002E0000002BA
:101EC000E7E702F8EFE7FCEFE7FCE0000002E000E4
:101ED0000002E0000002C00000028000000B7FF75B
:101EE000FE3FF7FD1FE3FB000002070000020700B2
:101EF00000020700000207000002070000020700BE
:101F0000000207000002071FE3FB3FF7FD7FF7FE1B
:101F10000000067FF7FEBFF7FDDFEBFBE01C07E0EC
:101F20001C07E01C07E01C07E01C07E01C07E01C86
:101F300007E01C07C008038000010000032F187F82
:101F4000F7FEBFF7FCDFE3F8E0000002E00000026C
:101F5000E0000002E7E702F8EFE7FCEFE7FCE00053
:101F60000002E0000002E0000002DFE3F8BFF7FC3F
:101F70007FF7FE0000067FF7FEBFF7FDDFE3FBE023
:101F80000007E00007E00007E00007E00007E000CE
:101F900007E00007E00007DFE3FBBFF7FD7FF7FE88
:101FA0000000067FF7FEBFF7FCDFE3F8E000000269
:101FB000E0000002E0000002E0000002E000000299
:101FC000E0000002E0000002E0000002DFE3F8BFF2
:101FD000F7FC7FF7FE99218B215E213221FE20D272
:101FE00020A620702044201820EB1F0E18000007A8
:101FF000080000021C0000021C0000021C0000027D
:102000001C0000021C0000021C0000021C00000258
:102010001C000002080000070E187FF000BFF0014E
:10202000DFE803E01C07E01C07E01C07E01C07E0FA
:102030001C07E01C07E01C07E01C07DFEBFBBFF7F9
:10204000FD7FF7FE0E187FF7FEBFF7FDDFEBFBE02D
:102050001C07E01C07E01C07E01C07E01C07E01C55
:1020600007E01C07E01C07DFEBFBBFF7FD7FF7FE77
:102070000E1800000380000002C0000002E0000013
:1020800002E0000002E0000002E0000002E00000C8
:1020900002E0000002E0000002E0000002DFE3F8DE
:1020A000BFF7FC7FF7FE0E187FF7FEBFF7FDDFEBF3
:1020B000FBE01C07E01C07E01C07E01C07E01C0716
:1020C000E01C07E01C07E01C07C00BFB8007FD00BD
:1020D00007FE0E187FF000BFF001DFE803E01C07E9
:1020E000E01C07E01C07E01C07E01C07E01C07E001
:1020F0001C07E01C07C00BFB8007FD0007FE0E1845
:102100007FF0003FF0001FE80000021C0000021CEE
:102110000000021C0000021C0000021C0000021C47
:102120000000021C0000021C001FEBF83FF7FC7FC0
:10213000F7FE0E18000003800001C00803E01C0732
:10214000E01C07E01C07E01C07E01C07E01C07E0A0
:102150001C07E01C07DFEBFBBFF7FD7FF7FE0E1847
:102160000007FE8007FDC00BFBE01C07E01C07E03A
:102170001C07E01C07E01C07E01C07E01C07E01C34
:1021800007DFE803BFF0017FF000000E1800002118
:102190001FE3F83FF7FC7FF7FE0E187FF7FEBFF74F
:1021A000FDDFE3FBE00007E00007E00007E00007D9
:1021B000E00007E00007E00007E00007DFE3FBBF07
:1021C000F7FD7FF7FE0C23FE22DA22B7228F226C66
:1021D0002249221F22FC21D9210B187FC000BFC039
:1021E00008DFA018E07038E07038E07038E0703830
:1021F000E07038DFAFD8BFDFE87FDFF00B187FDF9C
:10220000F0BFDFE8DFAFD8E07038E07038E070385A
:10221000E07038E07038DFAFD8BFDFE87FDFF00B69
:102220001800000380000002C0000002E00000026D
:10223000E0000002E0000002E0000002E000000216
:10224000DF8FC0BFDFE07FDFF00B187FDFF0BFDF85
:10225000E8DFAFD8E07038E07038E07038E0703810
:10226000E07038C02FD8801FE8001FF00B187FC027
:1022700000BFC008DFA018E07038E07038E07038A8
:10228000E07038E07038C02FD8801FE8001FF00BD6
:10229000187FC0003FC0001FA000000270000002B5
:1022A00070000002700000027000000270001FAF9A
:1022B000C03FDFE07FDFF00B18000003800008C0A4
:1022C0002018E07038E07038E07038E07038E07066
:1022D00038DFAFD8BFDFE87FDFF00B18001FF080DA
:1022E0001FE8C02FD8E07038E07038E07038E07038
:1022F00038E07038DFA018BFC0087FC000000B189E
:102300000000181F8FC03FDFE07FDFF00B187FDF7A
:10231000F0BFDFE8DF8FD8E00038E00038E00038B9
:10232000E00038E00038DF8FD8BFDFE87FDFF0045F
:1023300028000301800000020783C0000002078319
:10234000C00000020301800000E826CA265626ECE1
:102350002583250F259C244224D0235D2316283F66
:10236000FFC00000023FFFE0000002DFFFE00003CB
:10237000EFFFD00007F7FFB8000FF8007C001FF850
:10238000007C001FF8007C001FF8007C001FF80094
:102390007C001FF8007C001FF8007C001FF8007C08
:1023A000001FF8007C001FF8007C001FF8007C0074
:1023B0001FF8007C001FF7FFBBFFEFEF02FFD7FF06
:1023C000F7DFFFEFFFFB3FFFEFFFFC3FFFC7FFFC27
:1023D00016283FFFC7FFFC3FFFEFFFFCDFFFEFFFCB
:1023E000FBEFFFD7FFF7F702FFBBFFEFF8007C0022
:1023F0001FF8007C001FF8007C001FF8007C001F05
:10240000F8007C001FF8007C001FF8007C001FF81B
:10241000007C001FF8007C001FF8007C001FF80003
:102420007C001FF8007C001FF7FFBBFFEFEF02FFEF
:10243000D7FFF7DFFFEFFFFB3FFFEFFFFC3FFFC7DB
:10244000FFFC162800000AC0000004E0000004F0B1
:10245000000004F8000004F8000004F8000004F88C
:10246000000004F8000004F8000004F8000004F87C
:10247000000004F8000004F8000004F8000004F86C
:10248000000004F7FF83FFE0EFFFC7FFF0DFFFEF7F
:10249000FFF83FFFEFFFFC3FFFC7FFFC16283FFFA1
:1024A000C7FFFC3FFFEFFFFCDFFFEFFFFBEFFFD7B6
:1024B000FFF7F702FFBBFFEFF8007C001FF8007C7E
:1024C000001FF8007C001FF8007C001FF8007C0053
:1024D0001FF8007C001FF8007C001FF8007C001F24
:1024E000F8007C001FF8007C001FF8007C001FF83B
:1024F000007C001FF0003BFFEFE00017FFF7C0007B
:102500000FFFFB0000020FFFFC00000207FFFC169C
:10251000283FFFC00000023FFFE0000002DFFFE0B5
:102520000003EFFFD00007F7FFB8000FF8007C00B2
:102530001FF8007C001FF8007C001FF8007C001FC3
:10254000F8007C001FF8007C001FF8007C001FF8DA
:10255000007C001FF8007C001FF8007C001FF800C2
:102560007C001FF8007C001FF0003BFFEFE000172D
:10257000FFF7C0000FFFFB0000020FFFFC0000028E
:1025800007FFFC16283FFFC00000023FFFE00000ED
:10259000021FFFE00000020FFFD000000207FFB89B
:1025A0000000047C0000047C0000047C0000047C2B
:1025B0000000047C0000047C0000047C0000047C1B
:1025C0000000047C0000047C0000047C0000047C0B
:1025D00000000207FFBBFFE00FFFD7FFF01FFFEF78
:1025E000FFF83FFFEFFFFC3FFFC7FFFC162800008E
:1025F0000AC000000303E000100007F00038000FDD
:10260000F8007C001FF8007C001FF8007C001FF819
:10261000007C001FF8007C001FF8007C001FF80001
:102620007C001FF8007C001FF8007C001FF8007C75
:10263000001FF8007C001FF8007C001FF7FFBBFFA5
:10264000EFEF02FFD7FFF7DFFFEFFFFB3FFFEFFFEB
:10265000FC3FFFC7FFFC162800000207FFFC00003C
:10266000020FFFFCC0000FFFFBE00017FFF7F000B8
:102670003BFFEFF8007C001FF8007C001FF8007C97
:10268000001FF8007C001FF8007C001FF8007C0091
:102690001FF8007C001FF8007C001FF8007C001F62
:1026A000F8007C001FF8007C001FF8007C001FF77A
:1026B000FFB8000FEFFFD00007DFFFE000033FFF90
:1026C000E00000023FFFC00000021628000055078E
:1026D000FF83FFE00FFFC7FFF01FFFEFFFF83FFF93
:1026E000EFFFFC3FFFC7FFFC16283FFFC7FFFC3F83
:1026F000FFEFFFFCDFFFEFFFFBEFFFC7FFF7F70286
:10270000FF83FFEFF80000031FF80000031FF8002D
:1027100000031FF80000031FF80000031FF800006B
:10272000031FF80000031FF80000031FF800000358
:102730001FF80000031FF80000031FF80000031F2C
:10274000F7FF83FFEFEF02FFC7FFF7DFFFEFFFFBAE
:102750003FFFEFFFFC3FFFC7FFFC00000000000051
:10276000005F00000007000700147F147F14242A74
:102770007F2A12231308646236495522500005034C
:1027800000001C2241000041221C0000082A1C2AD3
:102790000808083E0808A0600000000808080808AB
:1027A000606000000020100804023E5149453E00D0
:1027B000427F400062514949462241494936181436
:1027C000127F1027454545393C4A49493001710976
:1027D00005033649494936064949291E003636005F
:1027E0000000AC6C000008142241001414141414EE
:1027F00041221408000201510906324979413E7E06
:102800000909097E7F494949363E414141227F41BC
:1028100041221C7F494949417F090909013E41493B
:10282000497A7F0808087F00417F41002040413FEE
:10283000017F081422417F404040407F020C027F0C
:102840007F0408107F3E4141413E7F090909063E51
:102850004151215E7F091929462649494932010122
:102860007F01013F4040403F1F2040201F3F403834
:10287000403F63140814630304780403615149451D
:10288000437F41410000020408102041417F0000C5
:102890000402010204808080808001020400002084
:1028A000545454787F48444438384444442038448D
:1028B00044487F3854545418087E09020018A4A4D0
:1028C000A47C7F0804047800007D00000080847DE3
:1028D000007F1028440000417F40007C04180478E9
:1028E0007C080404783844444438FC242424181810
:1028F0002424FC007C080404084854545420000498
:102900007F44003C4040207C1C2040201C3C403048
:10291000403C44281028441CA0A07C004464544C33
:1029200044083641000000007F00004136080000E6
:1029300002010102017F7F7F7F7F424D3E04000044
:10294000000000003E0000002800000080000000A1
:102950004000000001000100000000000004000031
:102960000000000000000000000000000000000067
:1029700000000000FFFFFF0053504920534E49461E
:102980004645520A424954343A2F53530A42495455
:10299000353A4D4F53490A424954363A4D49534FFF
:1029A0000A424954373A53434B005541525420533D
:1029B0004E49464645520A424954323A52582042FC
:1029C0004954333A54580049324320534E494646FD
:1029D00045520A424954303A534441204249543105
:1029E0003A53434C0029681434091A040D820640F6
:1029F000032A021501FDEDDCCCBCACA8A40301FD4B
:102A0000F5E5C56E174E4F2058540054696D65208A
:102A10002043616C656E64617220205461736B7336
:102A20000053636F70652020204375727665202007
:102A3000204D6574657200493243202020202020FB
:102A400053504920202020205541525400467265A1
:102A500071202020436F756E746572205065726915
:102A60006F6400426C6F636B732020537061636509
:102A7000202020436865737300436F6E666967208A
:102A8000446961676E6F73652041626F75740020E1
:102A9000204469676974616C205761746368202001
:102AA0000020204F7363696C6C6F73636F706520D7
:102AB00020200050726F746F636F6C20536E6966D4
:102AC00066657220004672657175656E6379204394
:102AD0006F756E7465720020202020202047616D84
:102AE00065732020202020200020202020205365F6
:102AF0007474696E67732020202000582000485AA3
:102B0000204D415800312053544F50424954003217
:102B10002053544F50424954004E4F205041524987
:102B20005459004556454E20504152495459004F82
:102B3000444420504152495459004D4F56452D2090
:102B4000202020202020204D4F56452B0053415659
:102B5000494E472E2E2E00C549C649C949C849B716
:102B600049BF49C049011020304000E0C0A080C0EA
:102B7000E0002040014080C0FF004080C0FF4020B6
:102B800000E0C0402000E0C0313230302020003270
:102B900034303020200034383030202000393630B6
:102BA000302020003139323030200033383430309A
:102BB00020003537363030200031313532303000AA
:102BC0002020314D003530304B003235304B003154
:102BD00032354B002036324B002033314B00203150
:102BE000364B002020384B002020344B00312E364D
:102BF0004B00203830300020383030002033323065
:102C000000203136300020203830002020333200C0
:102C10002020313600202020380020332E320020A2
:102C2000312E360020302E3800302E333200202056
:102C30003817002031361700203332170020363481
:102C4000170031323817003235361700353030175B
:102C50000020311A1B0020321A1B0020351A1B00DD
:102C600031301A1B0032301A1B0035301A1B00207D
:102C7000302E310020302E320020302E3500202022
:102C8000203100202020320020202035002020315B
:102C9000300020203230002020353000352E3132F7
:102CA00000322E353600312E323800302E363400C8
:102CB000302E333200302E31360038301A1B000FE0
:102CC0000C0D0E00101B1210001115000022101127
:102CD00013110029140016110019001D1E002021D7
:102CE0000000000009040000001604191408080878
:102CF00016160F16292929190C0D060606060606B2
:102D000000000102030405060708090A0A0B0C0D5E
:102D10000E0F10112122231F201213141516171540
:102D20001618191A1B1C1D1D1E24204348204F4E27
:102D3000202020002020202020204741494E2D2007
:102D4000202020002020204741494E2B004C4F4797
:102D50004943204F4E2000202020202053454C4541
:102D60004354202020002050524F544F434F4C00DA
:102D7000204E4F524D414C20202000202020205337
:102D8000494E474C45202020002043495243554C92
:102D9000415200204E4F524D414C20202000202017
:102DA000202053494E474C45202020002020202041
:102DB0004155544F20002056435552534F52200046
:102DC0002020204843555220434831202000202015
:102DD0004843555220434832002048414D4D494E0A
:102DE00047202020002020202048414E4E20202037
:102DF000002020424C41434B4D414E00202043488F
:102E00003120202020002020202020202043483274
:102E100020202020200020204C4F47494320002024
:102E200047524944202020002020464C495020444D
:102E30004953504C415920002020494E5645525488
:102E40002000202056444320202020202000202045
:102E5000205620502D5020200020465245515545E7
:102E60004E43592000202053494E45202020200069
:102E7000202020205351554152452020002020542D
:102E80005249414E474C4500504F534954494F4ECB
:102E900020202000202020494E564552542020203A
:102EA00000202020204D4154482000504F534954C9
:102EB000494F4E20202000202020494E5645525494
:102EC000202000202020544849434B30200020433C
:102ED000483120002020202020202020202043488E
:102EE00032200020202020202020204C4F47494322
:102EF0000054524947545950452020002020205466
:102F000052494753524320202000204D4F524554F0
:102F1000524947002053434F504520202020002095
:102F20002020204D455445522020200020202020E4
:102F30002020464654200020495120464654202057
:102F4000200020204646542057494E444F57202009
:102F500000202020204C4F472000435552534F5211
:102F60005320002020202020444953504C41592018
:102F70002000202020202020204157470057415684
:102F800045205459504520200020202053574545C6
:102F90005020202000204652455155454E435900AF
:102FA0002057494E444F5720202000202020204504
:102FB000444745202020200020202020534C4F5003
:102FC00045200020204155544F2020202020002063
:102FD0002020545241434B2020200020524546459A
:102FE00052454E4345002020414C4C2020202020BB
:102FF00000202020204249545F3020202020002043
:103000002020204249545F3100204249545F322041
:1030100020202000202020204249545F33202020FF
:103020002000202020204249545F3400204249548F
:103030005F352020202000202020204249545F3688
:103040002020202000202020204249545F370020EB
:1030500045585420545249472000202020204249FE
:10306000545F302020202000202020204249545F3F
:10307000310020504152414C4C454C202000202032
:103080002053455249414C20200020202020202060
:1030900050554C4C00204932432020202020200055
:1030A0002020202020554152542020202000202084
:1030B0002020205350492000204E4F2050554C4C8A
:1030C00020200020202050554C4C2055502020001E
:1030D0002050554C4C20444F574E002050455253E1
:1030E000495354454E5420200020204C494E452041
:1030F000202000202020202053484F57200020432C
:10310000504F4C20202020200020202020435048D9
:1031100041202020200020494E5645525420535330
:1031200000205355425452414354200020204D5515
:103130004C5449504C5920200020204156455241C2
:1031400047452000414D504C4954554445200020EE
:103150002044555459204359434C452000202020F9
:103160004F46465345540020524F4C4C20202020BF
:103170002000202020454C4153544943202000206A
:10318000205859204D4F44452000545249474D4F37
:1031900044452020002020504F535454524947208A
:1031A0000020202054524947484F4C4400204558A5
:1031B0005020202020202000202020204E4F495346
:1031C0004520202000202020435553544F4D2000FF
:1031D0002053504545442020202000202020204D11
:1031E0004F444520202020002020202052414E47DF
:1031F00045200053572046524551202020200020D2
:1032000020535720414D502020200020205357208C
:103210004455545920002020444F574E2020202050
:1032200000202050494E47504F4E4720202000207C
:1032300020414343454C000000C80090012003405A
:1032400006800C0019D430190032007D00FA00F419
:1032500001E204C4098813D430190032007D00FA59
:1032600000F401E20400C2EB0B00E1F50580F0FA86
:103270000240787D0120BCBE00105E5F0000D430AB
:103280000000105E5F0008AF2F00D01213006889A5
:1032900009006889090090D0030048E8010024F47F
:1032A0000000A8610000D43000006A180000C409C2
:1032B0000000E204000071020000FA0000010002B8
:1032C0000004000800140028005000C800900120ED
:1032D00003D007F900F301E703C3098713537520EF
:1032E0004D6F205475205765205468204672205336
:1032F0006100203230005741544348004F53434946
:103300004C4C4F53434F504500323000383A303028
:1033100020414D004A414E0000000000000046459B
:1033200042000000000000004D415200000000007B
:103330000000415052000000000000004D415900C3
:103340000000000000004A554E0000000000000090
:103350004A554C00000000000000415547000000A5
:1033600000000000534550000000000000004F43E3
:1033700054000000000000004E4F56000000000006
:103380000000444543000000000000004A616E75E3
:1033900061727900000046656272756172790000A1
:1033A0004D617263680000000000417072696C003A
:1033B000000000004D6179000000000000004A7527
:1033C0006E650000000000004A756C790000000086
:1033D00000004175677573740000000053657074D8
:1033E000656D626572004F63746F62657200000004
:1033F0004E6F76656D6265720000446563656D624F
:10340000657200001F1C1F1E1F1E1F1F1E1F1E1F78
:10341000000D1A27333F4A545E666D74787C7E7FB8
:103420007E7C78746D665E544A3F33271A0D00F334
:10343000E6D9CDC1B6ACA29A938C8884828182846D
:10344000888C939AA2ACB6C1CDD9E6F30E0358008E
:10345000530063006F007000650000001803470010
:10346000610062006F00740072006F006E006900FE
:103470006300730000000403090409022000010135
:103480000080FA0904000002FF0000000705810225
:103490004000000705010240000012011001FF007A
:1034A0000040D016F90600010102000111241FBEE0
:1034B000CFEFCDBFDFE5DEBF00E00CBF10E2A0E044
:1034C000B0E2E4E7F6EC00E00BBF02C007900D921B
:1034D000A832B107D9F72DE4A8E2B0E201C01D92ED
:1034E000A136B207E1F70E9439390C9438630C9485
:1034F00000008058860F1BF48FE767FD80E8805836
:103500000895E6E8FAE1E80FF11D099408C010C03B
:1035100018C020C028C030C038C040C048C058992A
:103520000895D099FCCF58990895D09BFCCFC7C07F
:1035300058990895D199FCCF58990895D19BFCCF03
:10354000BEC058990895D299FCCF58990895D29B3E
:10355000FCCFB5C058990895D399FCCF58990895D8
:10356000D39BFCCFACC058990895D499FCCF5899FF
:103570000895D49BFCCFA3C058990895D599FCCF4A
:1035800058990895D59BFCCF9AC058990895D6991B
:10359000FCCF58990895D69BFCCF91C058990895B7
:1035A000D799FCCF58990895D79BFCCF88C05899DC
:1035B00008959299FCCF58990895929BFCCF7FC0B3
:1035C000E5EEFAE1E80FF11D099408C010C018C03B
:1035D00020C028C030C038C040C048C058990895A5
:1035E000D09BFCCF58990895D099FCCF68C05899CA
:1035F0000895D19BFCCF58990895D199FCCF5FC015
:1036000058990895D29BFCCF58990895D299FCCF30
:1036100056C058990895D39BFCCF58990895D399D3
:10362000FCCF4DC058990895D49BFCCF589908956C
:10363000D499FCCF44C058990895D59BFCCF589994
:103640000895D599FCCF3BC058990895D69BFCCFDF
:1036500058990895D699FCCF32C058990895D79BB0
:10366000FCCF58990895D799FCCF29C0589908954F
:10367000929BFCCF589908959299FCCF20C0835813
:103680000090240280151CF4589BFACF08958A5F9D
:103690000090240280159CF0589BFACF08958D5716
:1036A0000090240280151CF0589BFACF0895865094
:1036B0000090240280151CF4589BFACF089589E0ED
:1036C000809340085D9A80B18B3058F484E100907B
:1036D0004C0800FEFCCF1092000A8093010258991A
:1036E0005D98089583580090640280151CF4589BDF
:1036F000FACF08958A5F00906402801504F3589B06
:10370000FACF08958D570090640280151CF0589BE5
:10371000FACF0895865000906402801584F6589B75
:10372000FACF08957F930090240270912402071627
:10373000072E24F0589BF9CF7F91089570912402B1
:10374000071A8015072ED4F4589BF8CF7F9108955F
:103750007F9300902402709124027015072E24F0AC
:10376000589BF9CF7F91089570912402071A08168B
:10377000072E24F4589BF8CF7F9108957F919FCF17
:103780007F9300906402709164020716072E24F064
:10379000589BF9CF7F91089570916402071A8015A4
:1037A000072E64F7589BF8CF7F9108957F93009080
:1037B0006402709164027015072E24F0589BF9CFB3
:1037C0007F91089570916402071A0816072EB4F6C7
:1037D000589BF8CF7F91089580586058009024023C
:1037E00080156CF206165CF2589BF8CF089580584D
:1037F000605800906402801514F2061604F2589B7B
:10380000F8CF0895FF7F0000F57F2403D87F480696
:10381000A67F6A09617F8C0C097FAB0F9C7EC81262
:103820001D7EE215897DF918E37C0B1C297C1A1F8B
:103830005C7B23227C7A28258979262884781F2B93
:103840006B77112E4176FB300475DF33B573BA36D2
:1038500054728C39E270563C5E6F173FC96DCE4191
:10386000236C7A446D6A1C47A668B449CF663F4C06
:10387000E864BF4EF1623351EB609B53D75EF55560
:10388000B35C4258825A825A4258B35CF555D75EAF
:103890009B53EB603351F162BF4EE8643F4CCF66FF
:1038A000B449A6681C476D6A7A44236CCE41C96D41
:1038B000173F5E6F563CE2708C395472BA36B5735E
:1038C000DF330475FB304176112E6B771F2B847824
:1038D0002628897928257C7A23225C7B1A1F297C5B
:1038E0000B1CE37CF918897DE2151D7EC8129C7EB5
:1038F000AB0F097F8C0C617F6A09A67F4806D87FD1
:103900002403F57F0000FF7FDCFCF57FB8F9D87F4A
:1039100096F6A67F74F3617F55F0097F38ED9C7EA3
:103920001EEA1D7E07E7897DF5E3E37CE6E0297C5E
:10393000DDDD5C7BD8DA7C7ADAD78979E1D48478EA
:10394000EFD16B7705CF417621CC047546C9B573AD
:1039500074C65472AAC3E270E9C05E6F32BEC96D0C
:1039600086BB236CE4B86D6A4CB6A668C1B3CF665B
:1039700041B1E864CDAEF16265ACEB600BAAD75EF5
:10398000BEA7B35C7EA5825A4DA3425829A1F55526
:10399000159F9B530F9D3351189BBF4E31993F4C40
:1039A0005A97B44993951C47DD937A443792CE4198
:1039B000A290173F1E8F563CAC8D8C394B8CBA367B
:1039C000FC8ADF33BF89FB309588112E7C871F2B43
:1039D0007786262884852825A4842322D7831A1F46
:1039E0001D830B1C7782F918E381E2156481C812EC
:1039F000F780AB0F9F808C0C5A806A09288048069C
:103A00000B802403008040C020A060E0109050D0C4
:103A100030B070F0088848C828A868E8189858D8C6
:103A200038B878F8048444C424A464E4149454D4C6
:103A300034B474F40C8C4CCC2CAC6CEC1C9C5CDC66
:103A40003CBC7CFC028242C222A262E2129252D2AE
:103A500032B272F20A8A4ACA2AAA6AEA1A9A5ADA66
:103A60003ABA7AFA068646C626A666E6169656D666
:103A700036B676F60E8E4ECE2EAE6EEE1E9E5EDE06
:103A80003EBE7EFE018141C121A161E1119151D172
:103A900031B171F1098949C929A969E9199959D936
:103AA00039B979F9058545C525A565E5159555D536
:103AB00035B575F50D8D4DCD2DAD6DED1D9D5DDDD6
:103AC0003DBD7DFD038343C323A363E3139353D31E
:103AD00033B373F30B8B4BCB2BAB6BEB1B9B5BDBD6
:103AE0003BBB7BFB078747C727A767E7179757D7D6
:103AF00037B777F70F8F4FCF2FAF6FEF1F9F5FDF76
:103B00003FBF7FFF77278894881F771F881F771F05
:103B1000672F71FD6250E7E0F8E3E80FF61F84912C
:103B200071FD819508953F922F925F924F927F92FF
:103B30006F929F928F92BF92AF92DF92CF92FF923D
:103B4000EF921F930F93DF93CF93FC0181E090E0FE
:103B5000A0E8B0E004E0809F6001909FD00C7C0161
:103B60009F938F93EF01A09FC00DD11DB09FD00DEB
:103B7000FF93EF93BB24AA24992700811181159507
:103B800007956881798175956795A801061B170BC4
:103B9000460F571F419351932081318135952795C9
:103BA0006A817B8175956795A901261B370B460FA6
:103BB000571F419351930F01E4E0F8E3EA0DFB1D19
:103BC0004591559165917591F001950320010C0384
:103BD0001001491E9C03590A300C411C591ED80380
:103BE000590A300C411C591EB70340012E03300105
:103BF000891EBE03990A700C811C991EFA03990A4A
:103C0000700C811C991E260C371C481C591C4992AB
:103C10005992B50320012C031001491EBC03590A17
:103C2000300C411C591EDA03590A300C411C591E34
:103C3000970340010E033001891E9E03990A700C00
:103C4000811C991EF803990A700C811C991E261874
:103C500037084808590849925992AC0CBD1CB1FE6E
:103C60008CCF04E0A09FC00DD11DE00DF11DB09FD1
:103C7000D00DF00D81E0E81AF90A09F07BCFEF9141
:103C8000FF918F919F91880F991FB695A7951096D8
:103C900009F060CFCF91DF910F911F91EF90FF90CE
:103CA000CF90DF90AF90BF908F909F906F907F905C
:103CB0004F905F902F903F900895000203040506F7
:103CC0000708090A0B0C0D0E0E0F3F922F925F9200
:103CD0004F927F926F929F928F92BF92AF921F935B
:103CE000DF93CF935C01EB0160E470E0E4E0FAE382
:103CF000992710E844991127A591BB27AA0FBB1F4C
:103D0000AA0FBB1FAA0DBB1D2D913D914D915D9139
:103D1000B30320012A031001491EBA03590A300CCB
:103D2000411C591EBA03590A300C411C591ED503B7
:103D300040014C033001891EDC03990A700C811C80
:103D4000991EDC03990A700C811C991E260C371CE5
:103D5000481C591C662477248824222733274427AB
:103D600070E1220F331F441F220C331C441C551CCE
:103D7000661C771C881C220C331C441C551C661CBA
:103D8000771C881C26153705480528F42395621AE8
:103D9000730A840A23957A9521F7469537952795D6
:103DA0001124439B1FC06217730710F020E020C04E
:103DB000261B370BFF93EF93EAEBFCE340EF37FD55
:103DC00004C0221F331F4051FACF330F369536956A
:103DD00036953695E30FF11D5491450F342FEF9131
:103DE000FF9106C0220F331F220F331F08F43FEF4D
:103DF00039931A9509F080CFCF91DF911F91AF9041
:103E0000BF908F909F906F907F904F905F902F907A
:103E10003F9008958093A03F8FE080939F3F862F2F
:103E20000C944B2C8FB18823E9F31FB880E00895E0
:103E300060E280E00E940A1F60E281E00E940A1FA7
:103E400060E282E00E940A1F60E283E00C940A1F95
:103E5000EF92FF920F931F93CF93DF930E942B2833
:103E6000D0E010E0F12EC0E09EE0E92EED0EF0FC77
:103E700008C001E02FE02C0F4E2D6C2F8D2F0E94DB
:103E80009B29F394C05FC03891F7175FD15F183456
:103E900049F711E000E0D1E0C0E02FEF210FC3FFB0
:103EA00004C0C95F0E5FD1E02AC0EC2FF0E0E459F6
:103EB000FF4DE081EF70F0E0E75FFF4D8081E0ECC7
:103EC000E80FE1F02170E73028F0211109C0EAEB9A
:103ED000E80F09C0211106C0E6ECE80F22E003C09C
:103EE00021E001C023E0F0E0EE0FFF1FE75FF54F98
:103EF00045915491602F8D2F0E94232ED15FCF5F6B
:103F00001F5FC7FFCACFDF91CF911F910F91FF9025
:103F1000EF900C943E372F923F924F925F926F92A8
:103F20007F928F929F92AF92BF92CF92DF92EF9249
:103F3000FF920F931F93CF93DF9300D000D0CDB7A4
:103F4000DEB780910020909101209C01225231091E
:103F50002093002030930120235F304260F480934F
:103F600000209093012080916A2390916B2391957A
:103F700081959109F7C48091ED209091EE202091D8
:103F800094233091952320936A2330936B232091BF
:103F90008C2330918D2320936C2330936D232091BB
:103FA0008A232093762320919323209377232091B3
:103FB0005C23209378232091602320938923019709
:103FC000809368239093692380915B2358E1852730
:103FD00080935B23109288231092872310927C2376
:103FE000A4C0433008F06CC48091872380937B2366
:103FF0008093812380918823807880937D23809192
:104000007C23833008F09DC060E47FE160937423DB
:104010007093752380917423909175239195819568
:10402000910920916A2330916B23821793070CF03A
:10403000BFC080917C23833008F0C2C020916C23E4
:1040400080916D2320936E2380936F23E0918123D1
:10405000F0E0E459FF4DE081E0937F2380915B2302
:104060008E2309F0B0C080918123875F877780938A
:10407000812390917B238913E9CF80916E239091C6
:104080006F239C012854314E21373D4318F072E6CE
:1040900070937C2341E050E020917423309175238C
:1040A00020343F4111F040E050E09C01205C304E54
:1040B000242B352B232B09F000C420E080E0209333
:1040C0006E2380936F2321E030E080917C23833046
:1040D00010F420E030E080916B20909177238923C9
:1040E00090E082239323892B01F1609187236770ED
:1040F0006F5980E00E940A1F8091872382958F70FC
:1041000068E3681B81E00E940A1F60918823677042
:104110006F5982E00E940A1F8091882382958770E0
:1041200068E3681B83E00E940A1F80917C2341E0C2
:10413000480F40937C2390917823891708F454CF3B
:1041400050CFA0910020B0910120E8E6F3E282E296
:1041500001900D928A95E1F720916A2330916B23AB
:1041600088279927821B930B8093ED209093EE2054
:1041700081E090E0821B930B80939423909395238E
:1041800080916C2390916D239195819591098093F5
:104190008C2390938D2370E870938A23109293233D
:1041A00080917C23835080935C2310926023C9CE3E
:1041B00020918E23243208F03CCF282F892F42CF24
:1041C00020EC80EE3FCFE770E0938023E0937923EB
:1041D000F0E0EC5CFA4FE491E0937A23C2C0709176
:1041E0007623872F90E0FC01E459FF4D208130E0D9
:1041F000AC014058510924233523862E912C232BC2
:1042000009F0CCC010916E2350916F2310936E2350
:1042100050936F230091802341E0033008F040E089
:10422000671709F4CAC0A0918523B0E0A459BF4D17
:104230008C9180938623B0905B23A09081234A2C9D
:10424000512CFF24F3948111F12C2F2D30E0F40137
:10425000E419F509E770FF2761E070E0EF2B11F03A
:1042600060E070E0621B730BE42FF0E06E237F23AD
:10427000982F9B21692B672B09F073C0E82FE770FB
:10428000F0E0EC5BFA4F65917491807C90E0E5E2A0
:104290006E02800D911D112480935E2390935F2305
:1042A00097FF93C070E4672E7FE1772E60926E23B4
:1042B00070926F2310917C2360916A2370916B231D
:1042C000661677060CF084C0113009F485C0609141
:1042D0006C2370916D236093702370937123612F11
:1042E00070E0621B730B623071050CF079C0809135
:1042F00070239091712320916E2330916F23E09170
:1043000081232817390774F480936E2390936F23C9
:10431000E093872380918323807890918223892B57
:104320008093882380917D23882309F466C21092AC
:104330007D23809181238093822380E8809384234E
:1043400080938323E0907D23EE2011F160918823F8
:104350006E256093822360938523862F887809F4E5
:104360003ECFE0917923E7FF04C080918023833022
:1043700048F4E0917A23EF5FE0937A23F0E0EC5D7C
:10438000FA4FE491E195E0937923E111D2CF6BCE1E
:104390006091792380918223680FDBCF9401281BE1
:1043A000390B223031050CF02DCF8819990902976D
:1043B0000CF028CF10E45FE129CF442309F433CF78
:1043C00090E16927609385232ECF612E752E6ECFE5
:1043D000123008F479CF51CEBC01601B71097BCF3C
:1043E000B20164597F4D940124593F4D2D833E8382
:1043F000063048F4FB01208530E0ED81FE815085D8
:10440000251B310902C020E030E020937023309357
:10441000712350918423FB0110821C92E52FF0E060
:10442000E459FF4D1082D0907F236D2D6062AD81E5
:10443000BE816C93587871F4E0918323F0E0E459E5
:10444000FF4D56E05B0D50832E5C3F4F2093702351
:1044500030937123A0917023B0917123202E312CC1
:1044600050918E23CC24C3945E3108F4C12C910169
:10447000245031092C29232B19F424E130E002C007
:1044800020E030E0FD01E21BF30BEB83FC83E093C3
:104490007023F0937123442309F487C056955695F1
:1044A000252F30E029833A83920122503109A90156
:1044B00048785527452B61F4F901E459FF4D71E027
:1044C00060E020812D1101C070E0472F562F02C0FF
:1044D00041E050E0B2016E5F7F4FFB01E878FF27BB
:1044E000EF2B61F464597F4DF1E0E0E0DB012C91AA
:1044F0002D1101C0F0E02F2F3E2F02C021E030E04F
:10450000240F351F61E070E0621B730BB0E1AB2636
:10451000EA2DF0E0E459FF4DE081F0E02B2D30E092
:104520002C5D3F4F41E050E0E217F30711F040E00F
:1045300050E0641B750BE9E0E69F9001E79F300DAA
:10454000112449815A81240F351F6B817C81260FEC
:10455000371F209370233093712320917923D40146
:10456000A20FB11D27FDBA959D012F5F3F4F27FF79
:1045700007C067E8862E62E0962E821893080AC06C
:10458000B0E18B0E911C2D2D207230E082229322FF
:10459000880C991CED81FE812081280D2083880ED6
:1045A000991E80925E2390925F2320916C2330911C
:1045B0006D2380915E2390915F23280F391F809196
:1045C000702390917123820F931F80937023909397
:1045D000712380916823909169239301681679066D
:1045E0000CF49C01209372233093732381E01330E9
:1045F00008F080E0C82A809174239091752380543C
:104600009F418C29892B91F02FEF210F91E00330EE
:1046100008F490E081E0163008F480E0892391E00E
:10462000E11090E089238F21122F181B10937E2315
:104630008091702390917123209172233091732384
:10464000281739072CF020917E23233008F44BC023
:10465000A0910020B0910120E8E6F3E282E201900F
:104660000D928A95E1F780916A2390916B23919541
:10467000819591098093ED209093EE208091722393
:1046800090917323919581959109809394239093B0
:104690009523809170239091712391958195910933
:1046A00080938C2390938D238091832380938A23FE
:1046B0001092932380917E2380935C2381E08093EA
:1046C00060233FCC813009F06EC1A8E6B3E282E2FC
:1046D00001900D928A95E1F780918F23909190231C
:1046E0009195819591098093912390939223809144
:1046F00091239091922341E0209168233091692386
:10470000281739070CF040E020917E232F5F20937B
:104710007E2330917C23231710F4411189CF80939D
:104720007023909371232091772340918123E0910E
:104730008223509183232223F1F12091572330913A
:1047400058232034FFE13F07B1F1803C904E99F1AE
:10475000842F90E08217930771F580918B23E813E3
:104760002AC020915E2330915F2380916C23909129
:104770006D23919581959109821B930B8093592309
:1047800090935A2350936623220F232F221F330B1B
:1047900080918E23820F80938E23809100209091B0
:1047A00001208296809300209093012080916A23BB
:1047B00090916B23D7C0A0918423B0E0A459BF4D42
:1047C00080915B238A5F8C93A52FB0E0F0E0E459E1
:1047D000FF4D1082A459BF4D1C92E42FF0E0E45924
:1047E000FF4D80917F238083E0918523F0E0E459A1
:1047F000FF4D8091862380837ACDF091792370914B
:1048000082238F2F992787FD90958E0F911D871BEF
:10481000910920917F232072822B6091802311E0E7
:10482000633008F410E020917A2330E027503109FA
:10483000462F50E044505109242B352B232B11F0E7
:1048400021E025C04F2F45954770ED5F4E274093DF
:104850008423E42FF0E0E459FF4D208130E05091B3
:104860005B23251B31092630310551F7A2E0A4272F
:10487000B0E0A459BF4DE1E0E427F0E0E459FF4D7A
:104880002C913081232B31E009F430E0232F1223C7
:10489000812B892B51F091E0653008F090E08091F8
:1048A0008623890F8093862302C07093832380918F
:1048B0008623882309F446CD54CD282F892FFFCB9A
:1048C00021E030E0809157239091582380349F411C
:1048D00011F020E030E08091772390E08223932351
:1048E000892BE1F08091EF209091F020A091F120B0
:1048F000B091F220423610F4B7FD76CB8091872339
:1049000090E0809357239093582380918823877752
:1049100080938B23E3E0E0937C2366CB80915B2341
:10492000F8E18F2780935B238091002090910120F4
:104930008296809300209093012020916E233091E5
:104940006F2381E090E040916C2350916D232417F8
:10495000350714F080E090E0820F931F80936E2360
:1049600090936F2380938F2390939023AA98E09144
:104970000020F091012023E2E735F207A1F08091B9
:10498000892381119FCEA8E6B3E282E201900D92C5
:104990008A95E1F780918F239091902380937423DF
:1049A0009093752337CB2696CDBFDEBFDF91CF9195
:1049B0001F910F91FF90EF90DF90CF90BF90AF903D
:1049C0009F908F907F906F905F904F903F902F902F
:1049D00008956F927F928F929F92AF92BF92CF92E3
:1049E000DF92EF92FF920F931F93CF93DF9385E0B7
:1049F000809340098FEF97E0809366099093670951
:104A000082E0809346091FB892E1C92E29E0B22EB8
:104A100000E81FEF34E0D32EC0E4DFE140ECE42EE9
:104A200040EEF42E10925D2380E180935B23109280
:104A30008E231092592310925A231092662380E0FD
:104A4000E82FF0E0E459FF4D10828F5F8138C0F30A
:104A500088E08093672380918B2348E0415008F4DD
:104A60003DC0842F90E0FC01E45CFA4F2491DC010E
:104A7000A459BF4DFD01E059FF4F38E0320F30839C
:104A8000205F2C935096CC9250977097B0820497E9
:104A9000889F602D112458E05150F0F0E52FF0E090
:104AA0009F01220F331F2750310984E0EE0FFF1FB3
:104AB0008A95E1F7EA0FFB1F229FC001239F900D0B
:104AC000900D112497FD03969C01359527953595FA
:104AD0002795260F2087E0CF8FEFC0CF4093672325
:104AE00080938B23F3E2AF2E99249394A0EF8A2E28
:104AF000B3E06B2E88E3782E0E94281FD0926723A4
:104B00007F99C2C0A09265230E94281F2091612333
:104B10002332C9F030916223482D4303C001112490
:104B2000820F911D815E9C4F809357239093582351
:104B300080916323815E90916423989D800D112460
:104B400080938B2325C0C0935723D0935823F89488
:104B5000C8010090482002C0880F991F0A94E2F70C
:104B6000AA2797FDA095BA2F8093EF209093F0206D
:104B7000A093F120B093F22078940E94181F8091A6
:104B80006B20882319F090925D2302C0D0925D23A0
:104B9000E092ED20F092EE20C0939423D0939523E1
:104BA0008091592390915A2380938C2390938D2345
:104BB0008091662380938A239092932360925C2352
:104BC000109260230E948B1F10925D2380916123BD
:104BD0008332D1F080918F239091902380349F4134
:104BE00081F06EE480E00E940A1F6FE681E00E947F
:104BF0000A1F64E782E00E940A1F66E583E00E94C4
:104C00000A1FA092612325C06091572367706F59D6
:104C100080E00E940A1F8091572390915823E4E07E
:104C200095958795EA95E1F7672D681B81E00E94CD
:104C30000A1F60918B2367706F5982E00E940A1FE0
:104C400080918B2382958770672D681B83E00E947B
:104C50000A1F80918F2390919023823C904E0CF0FC
:104C60004BCF6DE480E00E940A1F61E481E00E9466
:104C70000A1F64E582E00E940A1F64E583E00E9447
:104C80000A1F0E94121FCECEDF91CF911F910F916C
:104C9000FF90EF90DF90CF90BF90AF909F908F905C
:104CA0007F906F9008951F920F920FB60F9211246C
:104CB0008F939F93AF93BF938091EF209091F020BB
:104CC000A091F120B091F2200196A11DB11D809319
:104CD000EF209093F020A093F120B093F2208091E8
:104CE000EF20BF91AF919F918F910F900FBE0F90CA
:104CF0001F9018958091CA499091CB49A091CC49B9
:104D0000B091CD4926E034E0239FF0011124E45610
:104D1000F84F459155916591749184179507A607B1
:104D2000B70710F4215078F734E0239FF0011124E5
:104D3000EC56F84F4591559165917491619B05C072
:104D4000841B950BA60BB70B14C0629B05C0840F88
:104D5000951FA61FB71F0DC0223009F427E084E07D
:104D6000289FF0011124E856F84F85919591A5915F
:104D7000B4918093CA499093CB49A093CC49B09306
:104D8000CD4908950F931F93CF93DF938091C64928
:104D9000181614F41092C6498091C849811103C0B5
:104DA00081E08093C8498091CA499091CB49A091F4
:104DB000CC49B091CD4984369105A105B10528F4BF
:104DC00084E690E0A0E0B0E009C081329C4BAE4B9D
:104DD000B10560F080E29CEBAEEBB0E08093CA4995
:104DE0009093CB49A093CC49B093CD494091CA4907
:104DF0005091CB496091CC497091CD4936E020E487
:104E000080E09AE6A8E1B0E084179507A607B70707
:104E100010F5209396238091C749823009F44BC046
:104E200058F4882351F1813009F078C0C1EADFE3FA
:104E30000C2F10E41C1B37C08430A9F0C8F085305B
:104E400009F06CC040E051E060E070E081EA9FE36F
:104E50000E94E16263C0B695A795979587952695C0
:104E6000315091F6D6CFA1EABFE380E090E042C096
:104E7000E1EAFFE380E09FE72DC080916009909117
:104E8000610921EA3FE3F90145E552E6BC01649F6F
:104E9000C001659F900D749F900D11240196919310
:104EA0002E13F4CF3BC08C2F810F0E94821D89935B
:104EB0000C13F9CF33C081EA9FE3FC01382F2E2F6A
:104EC000281B27FF02C02FE701C021E821933E13D2
:104ED000F6CF24C0803839F0282F220F392F321B0B
:104EE00031938F5FF7CF982F990F9F5791938F5FD3
:104EF000D1F714C0282F8038910541F0FC01E45B04
:104F0000FA4FE491E195ED930196F4CFE22FF0E0B2
:104F1000E453FB4FE491ED932F5FC1F72091C84913
:104F200030E080E091E0821B930B880F991FD9013C
:104F3000AA0FBB1F61EA7FE3FB0140E050E0162FA0
:104F4000252F30E02F55304CE901D395008108839F
:104F500001915F3F81F021962081332727FD309515
:104F6000200F311D07FD3A9537FF02C02F5F3F4FDD
:104F7000359527952883480F591F2E2F3E2F361B16
:104F8000303809F4CD011213DBCFC0919623AC2F3A
:104F9000B0E020E13EE54FE550E00E94CE62209176
:104FA000CA493091CB494091CC495091CD490E949A
:104FB00071622150310986E08093A200C23010F066
:104FC00081E001C082E0809340092093760930930C
:104FD00077091C2F169509F411E0D0E0C0E020916C
:104FE000C649ED2FF0E0EF55FF4B3081A303812D33
:104FF00011246091C9490E947A1AEC2FF0E0E95619
:10500000FC4D8083CF5FD10FC111E9CF599887E064
:105010008093A200DF91CF911F910F9108958EB1DF
:1050200092E089278EB9719B09C08DE994E2809343
:10503000992490939A248BE994E208C08FE99DE229
:105040008093992490939A248DE99DE280939724EC
:105050009093982408958091992490919A2440E007
:105060009C01205F3F4FFC011192E217F307E1F72B
:1050700042964F5F4038A1F71092A03F10929F3F99
:1050800008952FE7281B862F86958695869590E0B4
:1050900032E1239F800D911D1124E0919924F0911C
:1050A0009A24E80FF91F677080E890E002C0959598
:1050B00087956A95E2F79081982B9083089587FDF4
:1050C0002AC067FD28C09FE7981B262F26952695A6
:1050D000269530E082E1989F200D311D11246770E4
:1050E00080E890E002C0959587956A95E2F7609117
:1050F000992470919A24FB01E20FF31F411104C01F
:1051000080959081982306C09081413011F4982BAE
:1051100001C09827908308950F931F93CF93DF9337
:10512000182F062FEA019E01FE01949122962F5F0F
:105130003F4FF90164919F3F31F0600F892F810F3C
:105140000E944128F0CFDF91CF911F910F910895D8
:10515000CF93DF93D82FC7E0D7FF0BC080919F3F3D
:105160006C2F98E0899F600D11248091A03F0E94D0
:105170004128DD0FC15080F78091A03F8F5F809361
:10518000A03FDF91CF9108959091A03F21E0290F9A
:105190002093A03F4FE7491B282F220F2A7A86959C
:1051A0008575282B34E0239FC0011124382F3C7CC7
:1051B000269526952373322B329580919F3F90E060
:1051C00022E1429F800D911D1124E0919924F091DC
:1051D0009A24E80FF91F8081832B80830895CF9252
:1051E000DF92EF92FF920F931F93CF93DF93182FCD
:1051F000062FC42FD22FC81BD61BD7FF04C0D195B2
:10520000EE24EA9402C0EE24E394C7FF04C0C195E3
:10521000DD24DA9402C0DD24D394602F812F0E9414
:105220004128CD1788F0FC2EF694C12CCC16E1F065
:10523000FD0EFC1610F0FC1A0E0D1D0D602F812FB7
:105240000E944128C394F2CFFD2EF694C12CFC0E8F
:10525000FD1610F0FD1A1D0D0E0D602F812F0E94FE
:105260004128C394CD12F3CFDF91CF911F910F91BD
:10527000FF90EF90DF90CF9008950F931F93CF93FF
:10528000DF931F921F92CDB7DEB7082F962F142FF2
:10529000803C20F487FF03C00FE701C000E0903C92
:1052A00028F497FD9FE7091738F001C090E0802FA0
:1052B00089279827082F0927901758F0422F612F28
:1052C000802F2A8399830E945F280F5F99812A810A
:1052D000F3CF0F900F90DF91CF911F910F91089511
:1052E000FF920F931F93CF93DF93D82FF62EC42FE7
:1052F000122F621718F0D427CD27DC27202F4F2D2F
:105300006C2F8D2F0E943D29202F412F6C2F8D2F28
:105310000E943D29212F4D2F6F2D8D2F0E94EF28A8
:10532000212F4C2F6F2D8C2FDF91CF911F910F913B
:10533000FF900C94EF28FF920F931F93CF93DF936E
:10534000D82FC42F122F621718F0D427CD27DC27AF
:10535000161758F0FF24F394F60E202F462F6C2FCB
:105360008D2F0E943D296F2DF3CFDF91CF911F919B
:105370000F91FF9008952F923F924F925F926F92FC
:105380007F928F929F92AF92BF92CF92DF92EF92D5
:10539000FF920F931F93CF93DF93CDB7DEB72A977A
:1053A000CDBFDEBFF82ED62E142F922E261730F446
:1053B000D2269D24D924F4261F25F126ED1430F49D
:1053C000DE24ED24DE24F0260F25F026E91430F447
:1053D0009E24E9249E24102701271027712E7F1870
:1053E00077FE03C071945FEF01C051E0492C4D1866
:1053F000B02EBF18B7FE04C0B19455245A9402C011
:10540000552453943E2C3D1874142CF474244724D2
:10541000742431E001C030E0B31434F43B24B324ED
:105420003B246624639401C0612C8B2C8594D91491
:1054300009F471C0272C2594AF2C90E0672D7727B5
:1054400067FD709569877A87AB2DBB27A7FDB0955F
:10545000AB83BC83692F70E0A985BA856A177B0787
:105460000CF059C0AF1418F42F2D4A2D02C02A2D6C
:105470004F2D70E0E92FF0E0A985BA85EA17FB0708
:105480001CF49F5F240C06C019821DC0271833230B
:10549000D9F3752FE22DF0E0A985BA85EA17FB074D
:1054A000ACF73111F1CFA50EE5CF8B18662069F06E
:1054B0005982E82DF0E0AB81BC81EA17FB07ACF71D
:1054C000611003C0F50C830CF4CF8A2D4A1508F443
:1054D000842F6A2DA21608F4622F6F1508F46F2D21
:1054E000F81608F48F2D2C2D4D2D3E835F837D8380
:1054F00098870E943D293E815F817D819885311189
:1055000001C0A50EA70E611001C0F50C7981F70E40
:10551000D394D9109FCFA02EA11AA7FE03C0A194A7
:105520009FEF01C091E02E2C2918A21434F42A24F4
:10553000A2242A244424439401C0412C7A2C75943B
:10554000912CEA2DFF27E7FDF095EB83FC832B2DB3
:10555000332727FD309529833A83292D30E0EB81CD
:10556000FC81E217F3070CF45BC01F1518F44F2DF4
:10557000E12F0FC0412FEF2D0CC0720C272D30E012
:105580006B817C812617370764F441100FC0190F17
:105590009394292D30E0AB81BC812A173B076CF333
:1055A00005C07A18442011F0392F01C030E050E0D6
:1055B0000EC08B18662079F0552D682D70E0A981FA
:1055C000BA816A177B07ACF7611005C0F50CF016BD
:1055D00011F0830CF2CF812FE11708F48E2F612F89
:1055E000141708F4642F6F1508F46F2DF81608F4DB
:1055F0008F2D2C2D4D2D3E835F8398870E943D2952
:105600003E815F819885411001C0190F130F611011
:1056100001C0F50CF50ED394ED1410F093949DCFCA
:105620002A96CDBFDEBFDF91CF911F910F91FF90E2
:10563000EF90DF90CF90BF90AF909F908F907F9032
:105640006F905F904F903F902F900895BF92CF92B0
:10565000DF92EF92FF920F931F93CF93DF93D82E99
:10566000F62E142FE22EC3E0D0E082E0489FC0194E
:10567000D109112400E0B02EBD0CCD2CC01A2E2D66
:105680004F2D411B6B2D8C2D0E943D292E2D412F1E
:105690004F0D6B2D8C2D0E943D294F2D401B2E2D23
:1056A000B12EBD0C6B2DCD2CC11A8C2D0E943D2925
:1056B000402F4F0D2E2D6B2D8C2D0E943D2981E00A
:1056C000800FE02FF0E0D7FF08C0EE0FFF1FEE0FB6
:1056D000FF1F3696CE0FDF1F0AC0E11BF109EE0F48
:1056E000FF1FEE0FFF1F3A96CE0FDF1F1150181746
:1056F00010F0082FC0CFDF91CF911F910F91FF9035
:10570000EF90DF90CF90BF900895EF92FF921F939C
:10571000CF93DF93182F8A3081F1282F30E0245166
:105720003109F901EE0FFF1FE20FF31FEB53F74FA3
:105730007F0183E0E80EF11CEF0121968491619BCB
:1057400002C0806880950E94A828CE15DF0511F060
:10575000FE01F2CF1C3111F480E318C01D3149F471
:1057600088E30E94A8288091A03F8F5F8093A03F8C
:105770000FC01A3111F488E009C08091A03F87FD65
:1057800007C0619902C080E001C08FE70E94A8288D
:105790008091A03F87FD02C01A3039F41092A03FDB
:1057A00080919F3F8F5F80939F3FDF91CF911F91AB
:1057B000FF90EF900895EF92FF920F931F93CF9376
:1057C000DF938E3229F480E60E94A82880E60CC080
:1057D0008D3269F483E00E94A82883E00E94A82803
:1057E00083E00E94A82883E00E94A82839C0803264
:1057F00021F48091A03F8A5F36C094E1899FE00147
:105800001124C350D84F80919F3F815080939F3F78
:105810008E01065F1F4FFE017F018FEFE81AF80A25
:1058200084910E94A828E016F10611F0F701F4CF48
:1058300080919F3F8F5F80939F3F8091A03F8A50D0
:105840008093A03F649678019FEFE91AF90AF80166
:1058500084910E94A828EC16FD0611F08701F3CF71
:105860008091A03F8E5F8093A03FDF91CF911F91E9
:105870000F91FF90EF900895CF93DF93FC018491F7
:10588000EF012196882321F00E94852BFE01F7CF9E
:10589000DF91CF910895FF920F931F93CF93DF93E2
:1058A000F82E8AE0F81205C08091A03F87FF1EC045
:1058B00024C02F2D30E02052310985E0829FF00175
:1058C000839FF00D1124E65AF84D8F010B5F1F4F97
:1058D000EF0121968491619B02C0806880950E94AF
:1058E000C428C017D10701F3FE01F2CF619902C0AD
:1058F00080E001C08FE70E94C4288091A03F87FD0F
:1059000003C08AE0F81207C01092A03F80919F3F29
:105910008F5F80939F3FDF91CF911F910F91FF90F9
:105920000895CF93DF93FC018491EF0121968823A2
:1059300021F00E944B2CFE01F7CFDF91CF9108950B
:10594000CF93DF93C82F843660F0DCE9D80FD436CC
:1059500020F0D8E3D80F82E301C081E30E94852BB9
:10596000CD2F80E3CA3018F08F5FCA50FBCF0E9462
:10597000852B80E38C0FDF91CF910C94852BCF93F7
:10598000DF93C82F843660F0DCE9D80FD43620F0DE
:10599000D8E3D80F82E301C081E30E944B2CCD2FC6
:1059A00080E3CA3018F08F5FCA50FBCF0E944B2CA7
:1059B00080E38C0FDF91CF910C944B2CEF92FF92F0
:1059C0000F931F93CF93DF93CDB7DEB72C97CDBF47
:1059D000DEBF8E010F5F1F4F98E0F80111929A957C
:1059E000E9F78093A03F60939F3F57FF15C0509504
:1059F0004095309521953F4F4F4F5F4F8DE2629913
:105A00000EC029873A874B875C870E94852B2985A2
:105A10003A854B855C8514C080E2629B07C029876C
:105A20003A874B875C870E94DB2BF1CF29873A8727
:105A30004B875C870E94852B5C854B853A85298541
:105A4000619940C02036F3E43F07F9E94F07FBE3D3
:105A50005F07DCF5211581EE380785EF480785E003
:105A6000580754F0CA01B90120EA36E841E050E095
:105A70000E949362F12C2EC0CA01B9012038E6E9D8
:105A80003E07E8E94E0751054CF020E137E240E0DF
:105A900050E00E949362FF24F3941CC020343244EF
:105AA0004F4051054CF028EE33E040E050E00E94BA
:105AB0009362F2E0FF2E0EC024E630E040E050E0BA
:105AC0000E949362E3E0FE2E05C0F12C2FE037E246
:105AD00040E050E067E084E0689FF0011124E45664
